:100000000C943B000C9458000C9458000C9458002D
:100010000C9458000C9458000C9458000C94580000
:100020000C9458000C9458000C9458000C945800F0
:100030000C9458000C9458000C9458000C945800E0
:100040000C9458000C9458000C940E040C94580016
:100050000C9458000C9458000C9458000C945800C0
:100060000C9458000C945800500457045E04680423
:1000700072047C04860411241FBECFEFD8E0DEBFDB
:10008000CDBF11E0A0E0B1E0EAEBF9E002C00590DD
:100090000D92A030B107D9F721E0A0E0B1E001C096
:1000A0001D92A530B207E1F70E945A000C94DB04C0
:1000B0000C9400008AB18C6F8AB98BB183708BB9B4
:1000C00084B1836084B985B18C7F85B920E040E03C
:1000D00060E083E50E9438040E94A404789485B10E
:1000E0008B7F85B92FEF84E39CE0215080409040C6
:1000F000E1F700C00000F3CFEF92FF920F931F9340
:10010000CF9390910001911117C0823749F49BB1B0
:100110009B7F9BB9909100019F5F90930001C3C0AA
:10012000833709F0C0C09BB194609BB990910001E6
:100130009F5F90930001B7C0909100019130B9F496
:10014000823749F49BB1977F9BB9909100019F5FE3
:1001500090930001A8C0833709F0A5C09BB19860B7
:100160009BB9909100019F5F909300019CC090917A
:1001700000019230B9F4823749F49BB19F7E9BB95C
:10018000909100019F5F909300018DC0833709F02B
:100190008AC09BB190619BB9909100019F5F909341
:1001A000000181C0909100019330B9F4823749F485
:1001B0009BB19F7D9BB9909100019F5F909300013F
:1001C00072C0833709F06FC09BB190629BB9909168
:1001D00000019F5F9093000166C0909100019430F0
:1001E000B9F4823749F49BB19F7B9BB99091000190
:1001F0009F5F9093000157C0833709F054C09BB1B3
:1002000090649BB9909100019F5F909300014BC057
:10021000909100019530B1F4823749F49BB19F77FA
:100220009BB9909100019F5F909300013CC0833780
:10023000D1F59BB190689BB9909100019F5F90931D
:10024000000131C0909100019630B1F4823749F439
:1002500095B19E7F95B9909100019F5F90930001A9
:1002600022C0833701F595B1916095B99091000155
:100270009F5F9093000117C090910001973099F40F
:10028000823741F495B19D7F95B91092000110928B
:10029000010109C0833739F495B1926095B9109284
:1002A000000110920101843709F0B2C2C82F83E621
:1002B0000E949D040E949F04082F10E0980136952B
:1002C000279536952795ABE7B4E10E94CC04969527
:1002D000879524E6289F7001299FF00C112498012E
:1002E000ADECBCEC0E94CC04FC01F695E795F695CC
:1002F000E795F695E7959F010E94CC049695879522
:1003000096958795969587959C01220F331F880FA8
:10031000991F880F991F880F991F820F931F9F01A4
:10032000281B390BC901A901440F551F880F991FBC
:10033000880F991F880F991F840F951F9F01220F07
:10034000331FEE0FFF1FEE0FFF1FEE0FFF1FE20F19
:10035000F31F98012E1B3F0BA701480F591F240FB5
:10036000351F30930301209302012F3F310511F017
:1003700008F0E8C02115310521F480E30E94BF0494
:1003800047C22A30310520F481E60E94BF0440C2F2
:10039000C9010A970A9720F482E60E94BF0438C276
:1003A000C90144970A9720F483E60E94BF0430C233
:1003B000C9014E970A9720F484E60E94BF0428C220
:1003C000C90188970A9720F485E60E94BF0420C2DD
:1003D000C901C2970A9720F486E60E94BF0418C29A
:1003E000C901CC970A9720F487E60E94BF0410C287
:1003F000C901865491090A9720F488E60E94BF0437
:1004000007C2C901805591090A9720F489E60E9424
:10041000BF04FEC1C9018A5591090A9720F48AE6F2
:100420000E94BF04F5C1C901845691090A9720F4BE
:100430008BE60E94BF04ECC1C9018E5691090A9750
:1004400020F48CE60E94BF04E3C1C90188579109DA
:100450000A9720F48DE60E94BF04DAC1C9018258D0
:1004600091090A9720F48EE60E94BF04D1C1C90108
:100470008C5891090A9720F48FE60E94BF04C8C1E6
:10048000C901865991090A9720F480E70E94BF04A8
:10049000BFC1C901805A91090A9720F481E70E94DF
:1004A000BF04B6C1C9018A5A91090A9720F481E3B1
:1004B0000E94BF04ADC1C901845B91090A9720F471
:1004C00082E30E94BF04A4C1C9018E5B91090A970F
:1004D00020F483E30E94BF049BC1C901885C910999
:1004E0000A9720F484E30E94BF0492C1C901825D8F
:1004F00091090A9720F485E30E94BF0489C1C901CC
:100500008C5D91090A9720F486E30E94BF0480C1A4
:10051000C901865E91090A9720F487E30E94BF040F
:1005200077C1C901805F91090A9720F488E30E948E
:10053000BF046EC12A3F310508F46AC189E30E94F5
:10054000BF0466C1C53709F063C184E60E949D04FB
:100550000E949F04E82FF0E09F013695279536957D
:100560002795ABE7B4E10E94CC049695879524E6E5
:10057000289F8001299F100D11249F01ADECBCEC38
:100580000E94CC04AC0156954795569547955695D3
:1005900047959A010E94CC049695879596958795E4
:1005A000969587959C01220F331F880F991F880FFE
:1005B000991F880F991F820F931F9A01281B390BCF
:1005C000C901220F331F880F991F880F991F880FA9
:1005D000991F820F931F9A01220F331F440F551F3B
:1005E000440F551F440F551F420F531FE41BF50BBB
:1005F000800F911F8E0F9F1F909303018093020124
:100600008F3F910511F008F003C1009721F481E4B8
:100610000E94BF04FDC08A30910520F482E40E944C
:10062000BF04F6C09C012A5031092A30310520F45C
:1006300083E40E94BF04ECC09C01245131092A309C
:10064000310520F484E40E94BF04E2C09C012E51D5
:1006500031092A30310520F485E40E94BF04D8C056
:100660009C01285231092A30310520F486E40E9489
:10067000BF04CEC09C01225331092A30310520F439
:1006800087E40E94BF04C4C09C012C5331092A3066
:10069000310520F488E40E94BF04BAC09C012654AE
:1006A00031092A30310520F489E40E94BF04B0C02A
:1006B0009C01205531092A30310520F48AE40E943A
:1006C000BF04A6C09C012A5531092A30310520F407
:1006D0008BE40E94BF049CC09C01245631092A303F
:1006E000310520F48CE40E94BF0492C09C012E5678
:1006F00031092A30310520F48DE40E94BF0488C0FE
:100700009C01285731092A30310520F48EE40E94DB
:10071000BF047EC09C01225831092A30310520F4E3
:100720008FE40E94BF0474C09C012C5831092A3008
:10073000310520F480E50E94BF046AC09C0126595F
:1007400031092A30310520F481E50E94BF0460C0E0
:100750009C01205A31092A30310520F482E50E949B
:10076000BF0456C09C012A5A31092A30310520F4B1
:1007700083E50E94BF044CC09C01245B31092A30F0
:10078000310520F484E50E94BF0442C09C012E5B29
:1007900031092A30310520F485E50E94BF0438C0B4
:1007A0009C01285C31092A30310520F486E50E943D
:1007B000BF042EC09C01225D31092A30310520F48E
:1007C00087E50E94BF0424C09C012C5D31092A30BA
:1007D000310520F488E50E94BF041AC09C01265E02
:1007E00031092A30310520F489E50E94BF0410C088
:1007F0009C01205F31092A30310520F48AE50E94EE
:10080000BF0406C08A3F910518F08EE20E94BF0423
:10081000CF911F910F91FF90EF9008951F920F922B
:100820000FB60F9211242F933F934F935F936F93C3
:100830007F938F939F93AF93BF93EF93FF93809199
:10084000C60080930401809104010E947C00FF9106
:10085000EF91BF91AF919F918F917F916F915F9138
:100860004F913F912F910F900FBE0F901F901895B1
:10087000E82F84FF52C084B18C6284B984B18F7E2A
:1008800084B98CB580618CBDE7708E2F90E0873085
:10089000910508F04BC0FC01EC5CFF4F0C94C604C2
:1008A0008CB58C7F8CBD8DB581608DBD3FC08CB506
:1008B0008C7F8CBD8DB58E7F8DBD38C08CB5816031
:1008C0008CBD8CB58D7F8CBD8DB581608DBD2EC0EE
:1008D0008CB581608CBD8CB58D7F8CBD8DB58E7FC8
:1008E0008DBD24C08CB58E7F8CBD8CB582608CBDD7
:1008F0008DB581608DBD1AC08CB58E7F8CBD8CB5D9
:1009000082608CBD8DB58E7F8DBD10C08CB583602F
:100910008CBD8DB58E7F8DBD09C084B1806184B9D9
:1009200084B1837D84B98CB58F7E8CBD8CB5462B0C
:10093000242B282B20642CBD08958EBD08950DB462
:1009400007FEFDCF8EB508958AB18E7F8AB98AB130
:1009500082608AB91092C000E1ECF0E010828081E0
:1009600088698083E2ECF0E0108280818660808379
:1009700087E690E09093C5008093C400089590911D
:10098000C00095FFFCCF8093C6000895EE0FFF1FB7
:100990000590F491E02D0994A29FB001B39FC0018E
:1009A000A39F700D811D1124911DB29F700D811D9B
:0A09B0001124911D0895F894FFCF63
:00000001FF
