S01D00004C61622033204469676974616C204553434C41564F2E737265639A
S11300000C943B000C944D000C944D000C944D004A
S11300100C944D000C944D000C944D000C944D0028
S11300200C944D000C944D000C944D000C944D0018
S11300300C944D000C944D000C944D000C944D0008
S11300400C944D000C94A0000C944D000C944D00A5
S11300500C944D000C944D000C944D000C944D00E8
S11300600C944D000C944D00E800EF00F6000001E4
S11300700A0114011E0111241FBECFEFD8E0DEBF18
S1130080CDBF21E0A0E0B1E001C01D92A230B207D3
S1130090E1F70E947C000C943D010C940000ECE715
S11300A0F0E010828081806280838081806480831C
S11300B0EEE7F0E0808181608083808182608083CC
S11300C0EAE7F0E010828081876080830895ECE79E
S11300D0F0E09081907F892B8083EAE7F0E08081D3
S11300E08068808380818064808380917A0086FD2B
S11300F0FCCF809179000895F89420E040E060E01E
S113010080E40E94D0000E944F008CB580688CBDB2
S1130110789480E00E946700809301018FE39CE95A
S11301200197F1F700C0000081E00E94670080930E
S113013000018FE39CE90197F1F700C00000E9CFCB
S11301401F920F920FB60F9211242F933F934F9348
S11301505F936F937F938F939F93AF93BF93EF932B
S1130160FF938EB5833629F4809101010E943501F5
S113017006C0843621F4809100010E943501FF916C
S1130180EF91BF91AF919F918F917F916F915F910B
S11301904F913F912F910F900FBE0F901F90189584
S11301A0E82F84FF52C084B18C6284B984B18F7EFD
S11301B084B98CB580618CBDE7708E2F90E0873058
S11301C0910508F04BC0FC01EC5CFF4F0C94370127
S11301D08CB58C7F8CBD8DB581608DBD3FC08CB5D9
S11301E08C7F8CBD8DB58E7F8DBD38C08CB5816004
S11301F08CBD8CB58D7F8CBD8DB581608DBD2EC0C1
S11302008CB581608CBD8CB58D7F8CBD8DB58E7F9A
S11302108DBD24C08CB58E7F8CBD8CB582608CBDA9
S11302208DB581608DBD1AC08CB58E7F8CBD8CB5AB
S113023082608CBD8DB58E7F8DBD10C08CB5836002
S11302408CBD8DB58E7F8DBD09C084B1806184B9AC
S113025084B1837D84B98CB58F7E8CBD8CB5462BDF
S1130260242B282B20642CBD08958EBD0895EE0FF9
S1110270FF1F0590F491E02D0994F894FFCF40
S9030000FC
